:100000000C9434000C9451000C9451000C94510049
:100010000C9451000C9451000C9451000C9451001C
:100020000C9451000C9451000C9451000C9451000C
:100030000C9451000C9451000C9451000C945100FC
:100040000C9451000C9451000C9451000C945100EC
:100050000C9451000C9451000C9451000C945100DC
:100060000C9451000C94510011241FBECFEFD8E026
:10007000DEBFCDBF16E0A0E0B1E0E8E5F2E102C0EE
:1000800005900D92AE32B107D9F728E0AEE2B6E0A6
:1000900001C01D92A538B207E1F70E94A0080C9498
:1000A0002A090C940000109245061092440660E064
:1000B00071E082E396E00E949D0581110CC085E00D
:1000C00091E00E94330685E496E00E9433068FE0BB
:1000D00091E00C94330666E171E082E396E00E94C1
:1000E0009D0581110AC08CE191E00E9433061092B7
:1000F0004206109243060C94610166E471E082E3CB
:1001000096E00E949D0581110CC08091420690915D
:100110004306019731F081E0809342061092430636
:1001200008956BE471E082E396E00E949D058111E1
:1001300003C081E591E0CDCF69E571E082E396E00F
:100140000E949D05811102C00C944A046FE571E084
:1001500082E396E00E949D05811146C084E691E00D
:100160000E9433068AE791E00E94330685E991E018
:100170000E94330686EB91E00E94330686ED91E003
:100180000E94330681EF91E00E9433068AE092E0FC
:100190000E94330680912E06811519F187E292E0C4
:1001A0000E9433068FE492E00E94330682E792E0D9
:1001B0000E9433068CE992E00E9433068BEC92E0B9
:1001C0000E94330681EF92E00E94330686E193E0BD
:1001D0000E9433068EE393E00E94330684E693E0A8
:1001E00078CF87E893E075CF63EA73E082E396E027
:1001F0000E949D05811102C00C947D016BEA73E0A1
:1002000082E396E00E949D05811102C00C940203D6
:1002100063EB73E082E396E00E949D05811102C0CA
:100220000C943D036CEB73E082E396E00E949D0525
:10023000811102C00C949D0166EC73E082E396E0AC
:100240000E949D05811102C00C94B9036EEC73E00D
:1002500082E396E00E949D05811102C00C94C101C9
:1002600068ED73E082E396E00E949D05811102C073
:100270000C94100260EE73E082E396E00E949D050C
:10028000811102C00C9455028CEE93E00E9433065B
:1002900082E396E00E9433068EE194E00E943306EA
:1002A00085E020E295B1922795B93FE749EA93E0CE
:1002B000315040409040E1F700C00000815091F77C
:1002C0000895CF93C0E28091420690914306892B16
:1002D00011F0CF9108950E941F0681110E94A90577
:1002E00085B18C2785B92FEF85EA9EE021508040AB
:1002F0009040E1F700C00000E6CFCF9380912E063A
:10030000811105C08CE294E0CF910C94330688E310
:1003100094E00E9433060E941208C82F85E494E0FE
:10032000C11591F382E594E00E94330680E38C0FBF
:100330000E942C0683EA95E0E7CF86E694E00E94CF
:10034000330680912E068115B1F08FE594E00E946E
:10035000330683EA95E00E9433068FE694E00E941C
:10036000330680912F0690913006892B39F088E76B
:1003700094E00C94330683E694E0E9CF84E894E0BB
:10038000F8CFCF9380912E06811105C08CE294E0C6
:10039000CF910C94330680912F0690913006892BD3
:1003A00019F489E894E0F4CF85E994E00E943306DB
:1003B00080E090E0E0912F06F0913006E80FF91F01
:1003C00080830196811522E09207A1F7A1EBB4E0AA
:1003D00080E090E02D91E0912F06F0913006E80F3B
:1003E000F91F208301968C309105A1F740912F06CB
:1003F0005091300668EE73E080E090E00E9429079B
:10040000C82F8EEB94E0C11519F28AEC94E00E949B
:10041000330680E38C0F0E942C0683EA95E0B8CF68
:10042000CF93DF9300D0CDB7DEB70E9462058983FA
:100430009A8386ED94E00E94330689819A8164E66E
:1004400070E00E94FC0880E3860F0E942C062AE0E0
:1004500030E089819A81B9010E94FC088983CB012F
:10046000B9010E94FC08805D0E942C068981805D94
:100470000E942C0683EA95E00E94330686E694E00B
:100480000E94330680912E06811561F08FE594E07D
:100490000E94330683EA95E00F900F90DF91CF9191
:1004A0000C94330683E694E0F3CFCF93C0912E06ED
:1004B0000E9462059C0191E02630310508F490E02D
:1004C00090932E068FED94E00E9433068FE594E022
:1004D000C11102C083E694E00E94330685EE94E0E9
:1004E0000E94330680912E06811589F08FE594E0F5
:1004F0000E94330683EA95E00E94330680912E061F
:10050000811541F0C11106C0CF910C948F0683E68E
:1005100094E0EECFCF910895805D0E942C0683EA8F
:1005200095E00C943306EF92FF920F931F93CF93B5
:10053000DF93CDB7DEB763970FB6F894DEBF0FBE7B
:10054000CDBF6A8B7B8B21E1EFEEF4E0DE011196EB
:1005500001900D922A95E1F77C0100E010E0802FD8
:100560008F7090E02A893B890217130791F4892B39
:10057000E1F183EA95E063960FB6F894DEBF0FBE13
:10058000CDBFDF91CF911F910F91FF90EF900C9411
:100590003306892B21F48CEE94E00E943306F70198
:1005A00081917F0182958F70FE013196E80FF11DD8
:1005B00080810E942C06F70182918F70FE01319696
:1005C000E80FF11D80810E942C0680E20E942C061B
:1005D0000F5F1F4F802F8F7090E0892B09F0BFCFE6
:1005E00083EA95E00E943306BACF63960FB6F8947B
:1005F000DEBF0FBECDBFDF91CF911F910F91FF9056
:10060000EF900895CF9380912E06811105C08CE262
:1006100094E0CF910C94330680912F069091300690
:10062000892B19F489E894E0F4CF80E095E00E94EA
:10063000330640912F065091300680E090E0BC01D7
:100640000E94CF06C82F81110DC086E195E00E945F
:10065000330660E870E080912F0690913006CF91CC
:100660000C94930280E295E00E94330680E38C0FA5
:100670000E942C0683EA95E0CCCFCF9380912E0682
:10068000811105C08CE294E0CF910C9433068091E7
:100690002F0690913006892B19F489E894E0F4CF65
:1006A0008AE295E00E94330680E090E0E0912F0618
:1006B000F0913006E80FF91F80830196811522E042
:1006C0009207A1F7A3E4B5E080E090E02D91E091DE
:1006D0002F06F0913006E80FF91F208301968D3028
:1006E0009105A1F740912F065091300668EE73E016
:1006F00080E090E00E942907C82F81112FC081E57A
:1007000095E00E9433068CE595E00E943306E09167
:100710002F06F091300680E092E0DF019C011D92EF
:1007200021503040E1F740912F065091300668EE9D
:1007300073E090E00E94CF0681110DC08BE695E03A
:100740000E94330660E470E080912F06909130069D
:10075000CF910C94930287E795E096CF84E895E0DB
:100760000E94330680E38C0F0E942C0683EA95E0FA
:100770008BCFCF92DF92EF92FF92CF9380912E0694
:10078000811109C08CE294E0CF91FF90EF90DF904F
:10079000CF900C94330680912F0690913006892BD0
:1007A00019F489E894E0F0CF8FE895E00E943306D1
:1007B000E12CF12C670180E38C0D0E942C068BE468
:1007C00092E00E94330640912F0650913006B60108
:1007D000C7010E94CF06C82F811122C060E470E0DB
:1007E00080912F06909130060E9493022FEF80E7B0
:1007F00092E0215080409040E1F700C000002FEFD0
:10080000C21AD20AE20AF20A83E0C816D104E1044D
:10081000F10489F6CF91FF90EF90DF90CF9008958B
:1008200085E295E00E94330680E38C0F0E942C063F
:1008300083EA95E00E943306D9CFCF93DF9300D0AF
:10084000CDB7DEB789839A83F0E080E090E0BC0109
:10085000A981BA81AF0FB11DEC9120ED2E0F2A3086
:1008600028F00F900F90DF91CF910895AAE0B0E0AB
:100870009B01AC010E9410092E2FEE0F330B205369
:100880003109032E000C0008620F731F801D901D9C
:10089000FF5FDECFAF92BF92CF92DF92EF92FF92D7
:1008A0000F931F93CF93DF93CDB7DEB760970FB64B
:1008B000F894DEBF0FBECDBF19828FEF8A838EEF13
:1008C0008B8381E591E00E94330608E010E18EE21F
:1008D0000E942C061150D9F783EA95E00E94330656
:1008E0000150A1F784E4D82E93E0E92E9BE1F92E84
:1008F0000E941F06811112C01D2D802F8F7002953E
:100900000F70133509F4AAC00CF049C0113409F076
:10091000A8C0811509F4AAC0815045C00E942506CF
:10092000182F8136B1F164F48B3489F02CF48134C2
:1009300021F3843411F3E0CF8335F9F28735FACF10
:10094000833749F10CF5843641F18B36A9F681E005
:10095000809342061092430661E089E00E9460069F
:1009600087E995E060960FB6F894DEBF0FBECDBF65
:10097000DF91CF911F910F91FF90EF90DF90CF907B
:10098000BF90AF900C943306873709F0B5CF17E5C9
:10099000B4CF11E4B2CF13E5B0CF14E4AECF01155C
:1009A00009F462C001500295007F080FCE2CD12CB3
:1009B000560121E0A21AB108FE013196EA0DFB1D95
:1009C0008081682F6F706F5F82958F708F5F0E943C
:1009D00060068EE20E942C06C601FE013196EC0DE7
:1009E000FD1D019711F00AF043C00983602F6F705D
:1009F0006F5F802F82958F708F5F0E94600680E30B
:100A00000E942C0682E0E81660F08A81682F6F70E1
:100A10006F5F82958F708F5F0E9460068FE60E94E5
:100A20002C066F2D6F706F5F8F2D82958F708F5F8B
:100A30000E94600680E40E942C0661E089E00E942A
:100A400060060F15D1F09FEF2BED85E0915020400F
:100A50008040E1F700C00000D12E4ACF0F5F077041
:100A6000A2CF8F5F8F709FCF07E09DCF8FE09BCF8E
:100A7000DF0112972C912293B4CFFE013196EA0D3B
:100A8000FB1D8081FE013196EC0DFD1D8083E394FA
:100A90009FEF2BED85E0915020408040E1F700C0B2
:100AA000000090E1E91609F457CF8DE0800FF82E91
:100AB000E894F7F8D1CF85E480937C0087E88093B1
:100AC0007A00089580917A00806480937A00809102
:100AD0007A0086FDFCCF809178009091790008958E
:100AE00020E0E0E090E04150550B309144062317A0
:100AF00030F09817C9F0FB01108280E00895A22F12
:100B0000B0E0AB5BB94F3C91303261F0E4171506B1
:100B10003CF4981305C0DB01AE0FB11D3C93EF5FB1
:100B20002F5FE3CF981306C0E60FF72FF11D108259
:100B300081E008959F5FE0E0F3CFDC01FB018C9141
:100B40009081811521F0119631968917C1F3891B87
:100B500008950E9425068D3011F08A30D9F583EA78
:100B600095E00E94330640E162E376E080E00E9477
:100B7000700581112DC086EA95E00E94330610921F
:100B800045061092440608958F5FE82FF0E0DF01DC
:100B9000AE5CB94F9C919111F7CF811541F0EF5C9C
:100BA000F94F80818D3011F08A3009F410822D9A2E
:100BB00082EE95E00E94330682E396E00E943306BF
:100BC00080E191E00E9433060E9453002D98089521
:100BD00080E0DBCF8A3329F48BEF95E00E94330667
:100BE000D0CFE0914406EF3368F491E09E0F9093EC
:100BF0004406F0E0EB5BF94F8083E92FF0E0EB5B1C
:100C0000F94F10828CE196E00E9433068EE196E067
:100C10000E94330685E496E00E94330685B190E297
:100C2000892785B908951092C50087E68093C4008E
:100C300088E18093C10086E08093C200089580918E
:100C4000C00087FB882780F908958091C00087FF46
:100C5000FCCF8091C60008959091C00095FFFCCF15
:100C60008093C6000895CF93DF93EC0188818111B2
:100C700003C0DF91CF91089521960E942C06F6CFF4
:100C8000CF93C82F843688F064E60E94F008805D18
:100C90000E942C068C2F6AE00E94F0080E94F00847
:100CA00080E3890F0E942C0602C08A3098F78C2FAF
:100CB0006AE00E94F00880E3890FCF910C942C0623
:100CC000CF93DF9300D0CDB7DEB789836A838BE102
:100CD0000E942C068BE50E942C0689810E9440060A
:100CE0008BE30E942C068A810E94400688E40F90C4
:100CF0000F90DF91CF910C942C068EBD0DB407FEA2
:100D0000FDCF8EB508952A9885E38A95F1F7000006
:100D100008952A9A85E38A95F1F700000895229AAA
:100D20000E94890684B1886284B9249881E58CBDCB
:100D30000895CF93CFEF8FEF0E947D068F3F11F480
:100D4000C150C9F7CF9108958FEF0E947D068F3F64
:100D5000D9F70895CF93DF9300D000D00F92CDB78D
:100D6000DEB74A835B836C837D83298380640E9422
:100D70007D068D810E947D068C810E947D068B817F
:100D80000E947D068A810E947D0689810F900F90C6
:100D90000F900F900F90DF91CF910C947D06EF9202
:100DA000FF920F931F93CF93DF9300D000D0CDB766
:100DB000DEB769837A838B839C837A0180912E06C8
:100DC000811509F443C00E9483062FEF49815A819F
:100DD0006B817C8181E10E94AA060E949906898329
:100DE0000FEF1FEF811581F00E94890684E089834F
:100DF00089810F900F900F900F90DF91CF911F91ED
:100E00000F91FF90EF9008958FEF0E947D068E3F27
:100E100041F001501040C1F70E948906E2E0E983E9
:100E2000E7CF8701F2E0FF0E8FEF0E947D06F80109
:100E300081938F01EE15FF05B9F78FEF0E947D06B4
:100E40008FEF0E947D060E948906D2CFF1E0F983E0
:100E5000CFCFEF92FF920F931F93CF93DF9300D0EA
:100E600000D0CDB7DEB769837A838B839C837A0108
:100E700080912E06811509F443C00E9483062FEF4E
:100E800049815A816B817C8188E10E94AA060E9477
:100E900099068983811529F00E94890684E0898357
:100EA0001EC08EEF0E947D068701E2E0FE0EF80173
:100EB00081918F010E947D060E151F05C1F78FEFEE
:100EC0000E947D068FEF0E947D068FEF0E947D06B7
:100ED0008F71853081F00E948906F3E0F983898162
:100EE0000F900F900F900F90DF91CF911F910F9166
:100EF000FF90EF9008950E94A4060E948906EFCF0C
:100F000081E0CDCFCF92DF92EF92FF920F931F93AC
:100F1000CF93DF9300D000D0CDB7DEB76B017C015B
:100F200049835A8380912E06811591F12B833C834E
:100F300000E010E089819A810817190771F480E0B8
:100F40000F900F900F900F90DF91CF911F910F9105
:100F5000FF90EF90DF90CF9008954B815C81B601B8
:100F6000C7010E94CF068111EBCF8FEFC81AD80AB4
:100F7000E80AF80A8B819C819E5F8B839C838FE9B2
:100F80009FE00197F1F700C000000F5F1F4FD2CF25
:100F900081E0D6CFCF92DF92EF92FF920F931F9313
:100FA000CF93DF9300D000D0CDB7DEB76B017C01CB
:100FB00049835A8380912E06811591F12B833C83BE
:100FC00000E010E089819A810817190771F480E028
:100FD0000F900F900F900F90DF91CF911F910F9175
:100FE000FF90EF90DF90CF9008954B815C81B60128
:100FF000C7010E9429078111EBCF8FEFC81AD80AC9
:10100000E80AF80A8B819C819E5F8B839C838FE129
:101010009EE40197F1F700C000000F5F1F4FD2CF91
:1010200081E0D6CF0F931F93CF93DF9380912E064D
:10103000C1E0811509F10E948F060E948906C0E176
:101040008FEF0E947D06C150D9F78FE99FE001978D
:10105000F1F700C000000E94830625E960E070E01F
:10106000AB0180E00E94AA060E949906C82F0E9448
:101070008906C13039F0C4E08C2FDF91CF911F91E8
:101080000F9108950E94830627E84AEA51E060E044
:1010900070E088E00E94AA060E949906813079F1EA
:1010A0000E94890608EE13E00E9483062FEF60E09D
:1010B00070E0AB0187E30E94AA060E949906C82F40
:1010C0000E948906C230B8F60E9483062FEF40E0E6
:1010D00050E060E070E489E20E94AA060E9499064E
:1010E000C82F0E9489068FE99FE00197F1F700C0A1
:1010F0000000C11559F001501040B1F6BCCFC4E05A
:101100008FEF0E947D06C150D9F7CACF0E94830697
:101110002FEF60E070E0AB018AE30E94AA060E9414
:101120009906811531F00E9489068CB58C7F8CBDA3
:10113000A3CFD4E08FEF0E947D06D150D9F7F3CF33
:1011400010924406259A3D9845980E9413060E94E5
:101150005B052D9A81E0809342061092430685E854
:1011600096E080932F06909330062FEF80E792E071
:10117000215080409040E1F700C000000AE010E0FC
:10118000C0E0D0E00E946205C80FD91F069708F0A2
:101190001F5F8FE39FE10197F1F700C0000001504E
:1011A00089F7111102C0EC97B0F081E080932E0610
:1011B0000E948F06C1E080913106811105C00E9416
:1011C0001F068111C09331060E941F06811531F060
:1011D0000E94A905F0CF10922E06ECCF2D98EBCFF0
:1011E000992778E0880F991F961708F0961B881F9B
:1011F0007A95C9F780950895AA1BBB1B51E107C0DA
:10120000AA1FBB1FA617B70710F0A61BB70B881F96
:10121000991F5A95A9F780959095BC01CD01089525
:101220000E941B09A59F900DB49F900DA49F800D57
:10123000911D11240895A29FB001B39FC001A39FE7
:10124000700D811D1124911DB29F700D811D1124FF
:08125000911D0895F894FFCFF1
:101258006563686F006563686F696E6720220022A6
:101268002E2E2E0D0A00626C696E6B00537461722B
:10127800747320626C696E6B696E6721202D20542F
:10128800797065206B696C6C20746F2066696E6973
:1012980073682E0D0A006B696C6C00636C65617273
:1012A800001B5B324A1B5B4800736E616B6500680C
:1012B800656C7000417661696C61626C6520636F72
:1012C8006D6D616E64733A0D0A0020206563686F66
:1012D800202020202D204563686F206D6573736181
:1012E80067650D0A002020626C696E6B2020202D36
:1012F80020537461727420626C696E6B696E67202A
:101308004C45440D0A0020206B696C6C202020207D
:101318002D2053746F702063757272656E7420741B
:1013280061736B0D0A002020636C656172202020B8
:101338002D20436C6561722073637265656E0D0ABA
:10134800002020736E616B652020202D20536E6174
:101358006B652067616D650D0A00202068656C70FB
:10136800202020202D2053686F772074686973200F
:1013780068656C700D0A000D0A534420436172645D
:1013880020636F6D6D616E64732028536869656CA6
:1013980064206465746563746564293A0D0A0020E5
:1013A8002073642D696E69742020202D20496E6990
:1013B8007469616C697A6520534420636172640DB5
:1013C8000A00202073642D726561642020202D207E
:1013D8005265616420736563746F7220302028350C
:1013E8003132206279746573290D0A0020207364F4
:1013F8002D777269746520202D20577269746520D5
:1014080074657374206461746120746F20736563FC
:10141800746F7220313030300D0A00202073642D33
:10142800737461747573202D2053686F772053444B
:1014380020736869656C64207374617475730D0A30
:1014480000202073642D64756D702020202D2044A9
:10145800756D7020666972737420332073656374C8
:101468006F72730D0A00202073642D666F726D61B0
:1014780074202D20466F726D61742074657374201A
:10148800736563746F7220313030300D0A0020208C
:1014980073642D746573742020202D205465737433
:1014A80020736869656C6420646574656374696F2A
:1014B8006E0D0A00202073642D726564657465637F
:1014C80074202D2052652D646574656374207368DB
:1014D80069656C640D0A000D0A53442053686965F8
:1014E8006C643A204E4F5420444554454354454477
:1014F8000D0A0073642D696E69740073642D72653A
:1015080061640073642D77726974650073642D7368
:1015180074617475730073642D64756D7000736401
:101528002D666F726D61740073642D746573740039
:1015380073642D7265646574656374006375727293
:10154800656E74407375706572202520636C6561E3
:101558006E656420627566666572202D204552525C
:101568004F523A20636F6D6D616E64206000602099
:101578006E6F7420666F756E640D0A004E6F20736F
:101588006869656C640D0A00496E69742053442EBD
:101598002E2E0D0A00534420696E6974204F4B0D9E
:1015A8000A00534420696E6974204552522000593C
:1015B8004553004E4F00536869656C643A200042F9
:1015C80075666665723A20004F4B202835313242E5
:1015D800290D0A004E4F0D0A004E6F20627566668F
:1015E80065720D0A00466F726D617474696E6720CA
:1015F800736563746F7220313030302E2E2E0D0AD1
:10160800006172644F535F464F524D415400466F1C
:10161800726D6174204F4B0D0A00466F726D6174D4
:101628002045525220004135204144433A2000577A
:1016380061733A2000204E6F773A20002020003056
:101648003132333435363738394142434445460020
:1016580052656164696E6720736563746F722030C8
:101668002E2E2E0D0A0052656164204F4B0D0A0084
:101678005265616420455252200057726974696E40
:101688006720736563746F7220313030302E2E2ED0
:101698000D0A006172644F535F53445F54455354BD
:1016A800005772697465204F4B0D0A0056657269C0
:1016B8006679696E672E2E2E0D0A00566572696668
:1016C80079204F4B0D0A005665726966792045529C
:1016D800520D0A0057726974652045525220004421
:1016E800756D703A0D0A0046696D20646F206A6F47
:1016F800676F210D0A0063757272656E74407375A9
:10170800706572202520636C65616E656420627562
:1017180066666572202D204552524F523A20636FFB
:101728006D6D616E64206E6F7420666F756E640DEA
:101738000A0063757272656E744073757065722005
:10174800252072756E6E696E67200063757272650A
:101758006E74407375706572202520636C65616EC8
:101768006564206275666665720D0A000D00637512
:0E1778007272656E74407573657220252000D4
:00000001FF
