:100000000C9434000C9451000C9451000C94510049
:100010000C9451000C9451000C9451000C9451001C
:100020000C9451000C9451000C9451000C9451000C
:100030000C9451000C9451000C9451000C945100FC
:100040000C9451000C9451000C9451000C945100EC
:100050000C9451000C9451000C9451000C945100DC
:100060000C9451000C94510011241FBECFEFD8E026
:10007000DEBFCDBF12E0A0E0B1E0EEE2F6E002C0EC
:1000800005900D92A633B107D9F722E0A6E3B2E0BE
:1000900001C01D92A938B207E1F70E94F7020C9443
:1000A00015030C940000DC01FB018C9190818115FB
:1000B00021F0119631968917C1F3891B089510928A
:1000C000C50087E68093C40088E18093C10086E084
:1000D0008093C20008958091C00087FB882780F933
:1000E00008958091C00087FFFCCF8091C6000895DD
:1000F0009091C00095FFFCCF8093C6000895CF93E8
:10010000DF93EC018881811103C0DF91CF910895C5
:1001100021960E947800F6CFCF93C82F843688F0BE
:1001200064E60E940903805D0E9478008C2F6AE0DB
:100130000E9409030E94090380E3890F0E9478004E
:1001400002C08A3098F78C2F6AE00E94090380E38E
:10015000890FCF910C947800CF93DF9300D0CDB767
:10016000DEB789836A838BE10E9478008BE50E9469
:10017000780089810E948C008BE30E9478008A813C
:100180000E948C0088E40F900F90DF91CF910C9427
:10019000780020E0E0E090E04150550B30914802BB
:1001A000231730F09817C9F0FB01108280E0089502
:1001B000A22FB0E0A75BBD4F3C91303261F0E41755
:1001C00015063CF4981305C0DB01AE0FB11D3C933E
:1001D000EF5F2F5FE3CF981306C0E60FF72FF11DF7
:1001E000108281E008959F5FE0E0F3CFAF92BF926D
:1001F000CF92DF92EF92FF920F931F93CF93DF93F3
:10020000CDB7DEB760970FB6F894DEBF0FBECDBF97
:1002100019828FEF8A838EEF8B8380E091E00E94BA
:100220007F0008E010E18EE20E9478001150D9F7BB
:1002300084E191E00E947F000150A1F784E4D82E70
:1002400093E0E92E9BE1F92E8091C00087FF0EC05C
:100250000E947100182F813609F445C0E4F48B34F4
:1002600009F1ACF4813419F0843409F01D2D802F8C
:100270008F7002950F70133509F496C0D4F51134C0
:1002800009F095C0811509F497C0815036C08335B7
:1002900071F38735EACF833741F10CF5843639F1B4
:1002A0008B3621F781E0809346021092470261E08D
:1002B00089E00E94AC0088E091E060960FB6F89467
:1002C000DEBF0FBECDBFDF91CF911F910F91FF9089
:1002D000EF90DF90CF90BF90AF900C947F00873766
:1002E00029F617E5C4CF11E4C2CF13E5C0CF14E45B
:1002F000BECF011509F45EC001500295007F080FC2
:10030000CE2CD12C560121E0A21AB108FE01319663
:10031000EA0DFB1D8081682F6F706F5F82958F7073
:100320008F5F0E94AC008EE20E947800C601FE0141
:100330003196EC0DFD1D019711F00AF03FC00983C5
:10034000602F6F706F5F802F82958F708F5F0E941C
:10035000AC008FE60E94780082E0E81660F08A81A7
:10036000682F6F706F5F82958F708F5F0E94AC00F7
:100370008FE60E9478006F2D6F706F5F8F2D8295D2
:100380008F708F5F0E94AC0080E40E9478000F1590
:10039000D1F09FEF24E38CE0915020408040E1F7C2
:1003A00000C00000D12E50CF0F5F0770A6CF8F5F27
:1003B0008F70A3CF07E0A1CF8FE09FCFDF0112970F
:1003C0002C912293B8CFFE013196EA0DFB1D80815E
:1003D000FE013196EC0DFD1D8083E3949FEF24E335
:1003E0008CE0915020408040E1F700C0000090E197
:1003F000E91609F45CCF8DE0800FF82EE894F7F849
:10040000D1CF0E9471008D3011F08A30D9F584E18E
:1004100091E00E947F0040E166E372E080E00E948C
:10042000C90081112DC087E191E00E947F001092E8
:1004300049021092480208958F5FE82FF0E0DF0133
:10044000AA5CBD4F9C919111F7CF811541F0EB5CF7
:10045000FD4F80818D3011F08A3009F410822D9A81
:1004600083E591E00E947F0086E392E00E947F0096
:100470008FEA91E00E947F000E9487022D98D7CFDB
:1004800080E0DBCF8A3329F48CE691E00E947F0084
:10049000D0CFE0914802EF3368F491E09E0F909343
:1004A0004802F0E0E75BFD4F8083E92FF0E0E75B77
:1004B000FD4F10828DE891E00E947F008FE891E06F
:1004C0000E947F0089E492E00E947F0085B190E263
:1004D000892785B90895CF93C0E280914602909113
:1004E0004702892B11F0CF9108958091C00087FDBC
:1004F0000E94010285B18C2785B92FEF85EA9EE025
:10050000215080409040E1F700C00000E6CF6FE945
:1005100071E086E392E00E94530081110CC084EAEE
:1005200091E00E947F0089E492E00E947F008EEAC1
:1005300091E00C947F0065EB71E086E392E00E940D
:100540005300811114C010924902109248028BEBA3
:1005500091E00E947F0010924602109247020E9492
:100560006B0281E08093460210924702089565EE87
:1005700071E086E392E00E945300811106C08091F1
:10058000460290914702019761F76AEE71E086E3B7
:1005900092E00E945300811103C080E091E0C9CF36
:1005A00060EF71E086E392E00E945300811102C087
:1005B0000C94F60086EF91E00E947F0086E392E0C3
:1005C0000E947F0088E292E00E947F0085E020E2A6
:1005D00095B1922795B93FE749EA93E03150404001
:1005E0009040E1F700C00000815091F70895259AEE
:1005F0000E945F002D9A81E080934602109247028C
:100600008091C00087FF03C00E940102F9CF2D989E
:10061000F7CF992778E0880F991F961708F0961B57
:0E062000881F7A95C9F780950895F894FFCF4A
:10062E001B5B324A1B5B480046696D20646F206A73
:10063E006F676F210D0A0063757272656E74407379
:10064E0075706572202520636C65616E656420622D
:10065E007566666572202D204552524F523A2063C0
:10066E006F6D6D616E64206E6F7420666F756E6453
:10067E000D0A0063757272656E74407375706572E3
:10068E0020252072756E6E696E672000637572721A
:10069E00656E74407375706572202520636C65619C
:1006AE006E6564206275666665720D0A000D0063E4
:1006BE00757272656E7440757365722025200065C3
:1006CE0063686F006563686F696E67202200222E73
:1006DE002E2E0D0A00626C696E6B0053746172747B
:1006EE007320626C696E6B696E6721202D205479C0
:1006FE007065206B696C6C20746F2066696E69730F
:10070E00682E0D0A006B696C6C00636C656172007B
:10071E00736E616B650063757272656E744073758E
:10072E00706572202520636C65616E65642062754C
:10073E0066666572202D204552524F523A20636FE5
:10074E006D6D616E6420600060206E6F7420666F48
:06075E00756E640D0A0037
:00000001FF
