:100000000C9434000C9451000C9451000C94510049
:100010000C9451000C9451000C9451000C9451001C
:100020000C9451000C9451000C9451000C9451000C
:100030000C9451000C9451000C9451000C945100FC
:100040000C9451000C9451000C9451000C945100EC
:100050000C9451000C9451000C9451000C945100DC
:100060000C9451000C94510011241FBECFEFD8E026
:10007000DEBFCDBF12E0A0E0B1E0E8E7F3E002C0F0
:1000800005900D92A431B107D9F722E0A4E1B2E0C6
:1000900001C01D92A736B207E1F70E94A8010C9497
:1000A000BA010C940000DC01FB018C919081811558
:1000B00021F0119631968917C1F3891B089510928A
:1000C000C50087E68093C40088E18093C10086E084
:1000D0008093C20008958091C00087FB882780F933
:1000E00008958091C00087FFFCCF8091C6000895DD
:1000F0009091C00095FFFCCF8093C6000895CF93E8
:10010000DF93EC018881811103C0DF91CF910895C5
:1001100021960E947800F6CF20E0E0E090E0415088
:10012000550B30912602231730F09817C9F0FB01C8
:10013000108280E00895A22FB0E0A95DBD4F3C91F0
:10014000303261F0E41715063CF4981305C0DB016A
:10015000AE0FB11D3C93EF5F2F5FE3CF981306C046
:10016000E60FF72FF11D108281E008959F5FE0E018
:10017000F3CF8091260281110AC0809124029091D0
:100180002502019721F480E091E00E947F000E9407
:1001900071008D3011F08A30D9F58BE991E00E9421
:1001A0007F0040E164E172E080E00E948C008111F8
:1001B0002DC080E191E00E947F00109227021092F2
:1001C000260208958F5FE82FF0E0DF01AC5EBD4F9F
:1001D0009C919111F7CF811541F0ED5EFD4F80812B
:1001E0008D3011F08A3009F410822D9A8CE491E060
:1001F0000E947F0084E192E00E947F0088E991E004
:100200000E947F000E944D012D98D7CF80E0DBCF68
:100210008A3329F485E691E00E947F00D0CFE091F7
:100220002602EF3368F491E09E0F90932602F0E0EF
:10023000E95DFD4F8083E92FF0E0E95DFD4F10821D
:1002400086E891E00E947F0080E091E00E947F00BC
:1002500087E292E00E947F0085B190E2892785B90C
:100260000895CF93C0E28091240290912502892BBA
:1002700011F0CF9108958091C00087FD0E94B900D0
:1002800085B18C2785B92FEF85EA9EE0215080400B
:100290009040E1F700C00000E6CF68E871E084E13B
:1002A00092E00E94530081110CC08DE891E00E9401
:1002B0007F0087E292E00E947F0087E991E00C9442
:1002C0007F006EE971E084E192E00E9453008111A9
:1002D00014C0109227021092260284EA91E00E9434
:1002E0007F0010922402109225020E94310181E0C9
:1002F000809324021092250208956EEC71E084E14F
:1003000092E00E945300811106C0809124029091D6
:100310002502019761F783ED91E00E947F0084E15F
:1003200092E00E947F0085E092E00E947F0085E0DD
:1003300020E295B1922795B93FE749EA93E0315021
:1003400040409040E1F700C00000815091F70895CF
:10035000259A0E945F002D9A81E0809324021092DA
:1003600025028091C00087FF03C00E94B900F9CF29
:080370002D98F7CFF894FFCFA0
:1003780063757272656E744075736572202520000E
:1003880063757272656E744073757065722025208E
:10039800636C65616E656420627566666572202DA2
:1003A800204552524F523A20636F6D6D616E642042
:1003B8006E6F7420666F756E640D0A0063757272D5
:1003C800656E7440737570657220252072756E6E47
:1003D800696E67200063757272656E74407375701C
:1003E8006572202520636C65616E656420627566A0
:1003F8006665720D0A000D006563686F00656368C5
:100408006F696E67202200222E2E2E0D0A00626C64
:10041800696E6B0053746172747320626C696E6BE1
:10042800696E6721202D2054797065206B696C6C8A
:1004380020746F2066696E6973682E0D0A006B69F7
:100448006C6C0063757272656E744073757065725A
:10045800202520636C65616E65642062756666653B
:1004680072202D204552524F523A20636F6D6D61B4
:100478006E6420600060206E6F7420666F756E6415
:040488000D0A000059
:00000001FF
